:100000000C9446000C9465000C9465000C946500FB
:100010000C9465000C9465000C9465000C946500CC
:100020000C9465000C9465000C9465000C946500BC
:100030000C9465000C94A4000C9465000C9465006D
:100040000C9465000C9465000C9465000C9465009C
:100050000C9465000C9465000C9465000C9465008C
:100060000C9465000C9465000C9465000C9465007C
:100070000C9465000C9465000C9465000C9465006C
:100080000C9465000C9465000C94650011241FBE4F
:10009000CFEFD0E4DEBFCDBF11E0A0E0B1E0EAE6F3
:1000A000FFE000E00BBF02C007900D92A239B1073C
:1000B000D9F721E0A2E9B1E001C01D92A23CB2074C
:1000C000E1F70E948C050C94A0070C940000CF93DC
:1000D000C82F8A3051F09091C00095FFFCCFC0939B
:1000E000C60090E080E0CF9108958DE00E94670007
:1000F000F2CF8BE0809381008FE090E090938900B5
:100100008093880082E080936F00109285001092A7
:10011000840080913A0190913B01A0913C01B09103
:100120003D018093940190939501A0939601B09323
:1001300097018FB780688FBF08951092810008954E
:1001400081E08093980108951F920F920FB60F924D
:1001500011240BB60F922F933F934F935F936F939E
:100160007F938F939F93AF93BF93EF93FF93809170
:10017000940190919501A0919601B09197010197FA
:10018000A109B1098093940190939501A0939601E0
:10019000B0939701892B8A2B8B2B99F0FF91EF91CC
:1001A000BF91AF919F918F917F916F915F914F918F
:1001B0003F912F910F900BBE0F900FBE0F901F908D
:1001C00018950E94A00080913A0190913B01A09166
:1001D0003C01B0913D018093940190939501A093CF
:1001E0009601B0939701DACF60933A0170933B0187
:1001F00080933C0190933D0160939401709395012D
:10020000809396019093970108950F931F93CF9336
:10021000DF9300D000D000D0CDB7DEB729833A837A
:100220004B835C8309811A812B812E833C813D8322
:1002300029813A814B815C810E94A30669837A837C
:100240008B839C83602F712F8E819D8129813A81C0
:100250004B815C81232B242B252B21F726960FB66F
:10026000F894DEBF0FBECDBFDF91CF911F910F91EC
:100270000895442349F021E030E002C0220F331FEB
:100280006A95E2F7822B089521E030E002C0220F48
:10029000331F6A95E2F720958223089521E030E02C
:1002A00002C0220F331F6A95E2F78223089540E0CF
:1002B00064E08FEF0E94390182B9000080B160E0F4
:1002C00080950E944E0181117FC080B161E08095D0
:1002D0000E944E0181117AC080B162E080950E9437
:1002E0004E01811175C080B163E080950E944E017E
:1002F000811170C040E065E08FEF0E94390182B942
:10030000000080B160E080950E944E01811164C0C0
:1003100080B161E080950E944E0181115FC080B183
:1003200062E080950E944E0181115AC080B163E065
:1003300080950E944E01811155C040E066E08FEF2C
:100340000E94390182B9000080B160E080950E946E
:100350004E01811149C080B161E080950E944E013B
:10036000811144C080B162E080950E944E018111EC
:100370003FC080B163E080950E944E0181113AC078
:1003800040E067E08FEF0E94390182B9000080B140
:1003900060E080950E944E0181112EC080B161E025
:1003A00080950E944E01811129C080B162E0809544
:1003B0000E944E01811124C080B163E080950E94AB
:1003C0004E0181111FC0089581E3089584E30895CB
:1003D00087E308958AE2089582E3089585E3089506
:1003E00088E3089580E3089583E3089586E30895FC
:1003F00089E3089583E2089581E4089582E40895ED
:1004000083E4089584E4DFCF482F592F30E020E0C3
:1004100002C02F5F3F4F241735074CF490E080E077
:10042000873063E09607ACF700000196F9CF089596
:100430009BB19F7B9BB988B98BB180688BB9000059
:100440008BB18F778BB982E090E00E94040208950F
:1004500081E00E9418020895813120F481580E94A1
:100460001802089581550E941802089584E690E0CC
:100470000E94040288E30E94180286E00E9418028B
:100480008FE00E94180281E00E9418028AE090E04A
:100490000E94040208959BB190649BB988B98BB106
:1004A00080688BB900008BB18F778BB981E090E0C9
:1004B0000E94040208950F931F93CF93062F172FC6
:1004C000883038F080E80E941802CF911F910F9178
:1004D0000895885F880F880F880F0E941802C0E077
:1004E00007C0F801EC0FF11D80810E944B02CF5F25
:1004F000C830B8F3E7CF0F931F93CF93DF93182F34
:10050000C62FD72F0E9428028881882351F001E04E
:10051000010F812F0E942C0289910E944B02102F03
:10052000F3CFDF91CF911F910F9108951F93CF9338
:10053000DF93C62FD72F9881992349F011E0180F28
:100540000E942C0289910E944B02812FF4CFDF91EF
:10055000CF911F91089590E00E944C07089590E07C
:100560000E94440708950E9436020E94280260E516
:1005700071E082E10E947B028DE10E942C02809159
:100580009201805D0E944B028FE10E942C0208952F
:100590000E9435079C012770307899231CF0C9010F
:1005A0000196089521503109286F3F6F2F5F3F4F0B
:1005B000F6CF019789309105A8F48E55984FFC012C
:1005C0000C94C50681E0089584E0089588E00895BC
:1005D00080E1089580E2089580E4089580E8089518
:1005E00080E9089580E0089582E0089570E0FB01BD
:1005F000EE5CFE4F9081292F20952093BC01209125
:100600000101213079F06F5C7E4FFB012081322F98
:1006100030953093BD01920F90958093BB019093DC
:10062000B90108956D5C7E4FFB012081322F30951A
:100630003093BD01920FF0CF6091920170E08091F4
:10064000930190E00E94F60290E080E00FC026EA5D
:100650002A95F1F700C0FC01E654FE4F208122B933
:10066000FC01E854FE4F208125B9019682309105A6
:1006700074F30895882349F0813079F060919201F4
:10068000809193010E94F60208958091920188233F
:10069000A9F3815080939201F1CF8091920186302D
:1006A00068F78F5F80939201E9CFCF93DF93C82FD4
:1006B000D92F209721F48091B001813021F0CE0113
:1006C000DF91CF9108956091920170E08091930144
:1006D00090E00E94F602489B07C04999F0CF90E055
:1006E00080E00E943A03EBCF81E090E00E943A0361
:1006F000F4CF1092B3011092B201AAEBB1E01C92B8
:10070000E8EBF1E0108211961C9211820E943602F1
:100710000E9428026AE571E082E10E947B028DE17D
:100720000E942C028FEF0E94AF028093B10186E1FC
:1007300090E00E9444078093B501853110F010923B
:10074000B5016091B50170E086E190E00E945A0722
:100750008091B501805D0E944B028FE10E942C02C6
:100760008FEF0E94AF020E944B026AE171E080E0CD
:100770000E945B0262E171E081E00E945B026AE03C
:1007800071E082E00E945B0262E071E083E00E941F
:100790005B0287E00E942C0280E00E944B0281E015
:1007A0000E944B0282E00E944B0284E00E944B02B6
:1007B0008091AF010E942C0208958091B501609153
:1007C000B2017091B301861717060CF0089586E107
:1007D00090E00E944C0786E190E00E9444078093DD
:1007E000B5016091B4018FEF0E94AB028091B4011A
:1007F0008093B101EBCFCF93C82F6CE370E080E022
:1008000090E00E94F4008CE3809300010E94DD03DD
:100810001092B3011092B201AAEBB1E01C92E8EB86
:10082000F1E0108211961C9211820E9436020E9401
:100830002802C13081F06FE671E085E00E947B0202
:100840008091B4010E944B0267E771E082E10E944F
:100850009602CF91089566E671E085E00E947B02E2
:10086000EFCF0E9436020E94280263E871E081E027
:100870000E947B0269E871E085E10E947B028CE1C5
:100880000E942C028091B4010E944B028EE10E94D2
:100890002C0281E00E942C028091B201805D0E94B6
:1008A0004B0208958091B6019091B7018230910575
:1008B00009F440C080F08330910509F449C00497E1
:1008C000E9F58091B001813009F452C01092B7016E
:1008D0001092B60133C0009759F0019779F5499B02
:1008E00022C082E090E09093B7018093B60126C0C9
:1008F000499909C0489B07C081E090E09093B701F7
:100900008093B6011BC0499B09C0489907C083E08A
:1009100090E09093B7018093B60110C01092B70198
:100920001092B6010BC081E090E09093B7018093E4
:10093000B60104C01092B7011092B6018091B601C1
:100940009091B70182309105D1F0049731F108956B
:10095000489B07C084E090E09093B7018093B60174
:10096000EDCF83E090E09093B7018093B601E6CF9E
:1009700084E090E09093B7018093B601DFCF80913F
:10098000AF018A3030F48F5F8093AF010E9479030A
:10099000089587E08093AF01F9CF81E08093B001A3
:1009A0008091AF018930A1F040F4873061F0883048
:1009B00061F481E08093B40108C08A3031F484E0AE
:1009C0008093B40102C01092B4010E9431040895D2
:1009D00082E08093B401F9CFCF93DF9300D000D0B1
:1009E000CDB7DEB7282F392F2A303105D0F4F901E1
:1009F000E555F84F0C94C5068091B001813011F097
:100A0000822F0FC090E00DC0809122018093BA0127
:100A10000E94C8020E94D90280958093B80182E0AA
:100A200090E00F900F900F900F90DF91CF9108956D
:100A3000809123018093BA0183E090E0F2CF80910E
:100A400024018093BA0184E090E0EBCF80912501EE
:100A50008093BA0185E090E0E4CF809126018093F5
:100A6000BA0186E090E0DDCF809127018093BA0142
:100A700087E090E0D6CF809128018093BA0188E08A
:100A800090E0CFCF809129018093BA0189E090E076
:100A9000C8CF8091B8019091BC01891759F190910C
:100AA000BD01891739F18091B2019091B30189306C
:100AB00091054CF01092B00181E090E00E94FB03A0
:100AC00080E090E0AECF01969093B3018093B201A5
:100AD0000E94310480910001855080930001282FED
:100AE00030E050E040E0CA01B9010E94F40081E02A
:100AF00090E097CF1092B00190E080E00E94FB035D
:100B000080E090E08ECF60E081E00E94AB0260E088
:100B100080E00E94AB020895CDB7DEB728970FB6EC
:100B2000F894DEBF0FBECDBF8FEF81B91BB884B97B
:100B300015B887B918B880EC8AB98FE78BB9A4EAE1
:100B4000B1E0BA83A983E9E9F1E0FC83EB831C926D
:100B50004AE050E060E070E011964D935D936D9334
:100B60007C93149715961D921D921D921C921897B6
:100B700085E593E01A969C938E931997108284E1F1
:100B800090E0A0E0B0E081839283A383B4831582D8
:100B90001682178210868CEE94E09287818787E018
:100BA0008093AF0190E080E00E947C060E943907AC
:100BB00080910001282F30E050E040E02D833E83FB
:100BC0004F835887CA01B9010E94F4000E9479003E
:100BD0000E94790381E08093930110929201109218
:100BE000B7011092B60109C08FEF82B915B80E9403
:100BF00052048091B001813029F08091B0018111BF
:100C0000F8CFF2CF0E941C03F12CE12C0FC0F801A9
:100C100085819681A781B0850196A11DB11D85832F
:100C20009683A783B087FFEFEF1AFF0A22E0E21650
:100C3000F10470F5F701EE0FFF1F41E050E04C0F9B
:100C40005D1FE40FF51F00811181D80115964D91AC
:100C50005D916D917C91189711968D919D910D905C
:100C6000BC91A02D481759076A077B0781F6D80168
:100C70001996ED91FC911A978C91082E000C990B06
:100C80000995F80180831582168217821086BFCFDE
:100C90004A9B07C0809198018823E1F31092980144
:100CA000ACCF1092B0011092B3011092B201AAEB36
:100CB000B1E01C92E8EBF1E0108211961C921182D7
:100CC0001092920187E08093AF010E94790390E037
:100CD00080E00EC0FC01EE0FFF1F41E050E04C0F22
:100CE0005D1FE40FF51F0190F081E02D1082019649
:100CF0008230910578F3CECFCF93DF9300D000D030
:100D0000CDB7DEB7FC010FB6F8948091BE0190918B
:100D1000BF01A091C001B091C10189839A83AB83C7
:100D2000BC830FBE309721F080839183A283B3836D
:100D300069817A818B819C810F900F900F900F9029
:100D4000DF91CF910895A1E21A2EAA1BBB1BFD01D2
:100D50000DC0AA1FBB1FEE1FFF1FA217B307E4079A
:100D6000F50720F0A21BB30BE40BF50B661F771FF2
:100D7000881F991F1A9469F76095709580959095D2
:100D80009B01AC01BD01CF010895EE0FFF1F0024B0
:100D9000001C0BBE0790F691E02D0994CF92DF92D4
:100DA000EF92FF92CF93DF93CDB7DEB72A970FB6BE
:100DB000F894DEBF0FBECDBF89879A87A985BA8513
:100DC0002D913D914D915C9129833A834B835C83B6
:100DD000232B242B252B41F424E239ED4BE557E05E
:100DE00029833A834B835C8369817A818B819C81DF
:100DF0002DE133EF41E050E00E945F0769017A0185
:100E0000A7EAB1E49B01AC010E947E0769837A8363
:100E10008B839C83ACEEB4EFA70196010E948C07F4
:100E20009B01AC0189819A81AB81BC81820F931FA8
:100E3000A41FB51FB7FF03C00197A109B048E985FA
:100E4000FA8580839183A283B3839F772A960FB616
:100E5000F894DEBF0FBECDBFDF91CF91FF90EF9032
:100E6000DF90CF9008950C94CE068CE491E00C9422
:100E7000CE06B0E0A0E080934C0190934D01A0938A
:100E80004E01B0934F010895F999FECF92BD81BDF7
:100E9000F89A992780B50895262FF999FECF1FBAA1
:100EA00092BD81BD20BD0FB6F894FA9AF99A0FBE93
:100EB000019608950E944C07272F0C944D07052E8C
:100EC00097FB1EF400940E94760757FD07D00E94FE
:100ED000A30607FC03D04EF40C947607509540957A
:100EE000309521953F4F4F4F5F4F089590958095D6
:100EF000709561957F4F8F4F9F4F08950E94910786
:100F0000A59F900DB49F900DA49F800D911D11245D
:100F10000895B7FF0C947E070E947E07821B930BF7
:100F20000895A29FB001B39FC001A39F700D811DC2
:100F30001124911DB29F700D811D1124911D0895E2
:100F4000F894FFCFE202F402E402E602E802EA02C9
:100F5000EC02EE02F002FC04040518051F0526054C
:0A0F60002D0534053B054205490547
:100F6A003C0111090402050A1100040411001F00C2
:100F7A001504110A040E000A000A04040E11001FC7
:100F8A000404804020100804020101020408102011
:100F9A004080010204081020408001000000000087
:100FAA0000020000000067000000000001000000CD
:100FBA00637572656E74593A20006869676873636D
:100FCA006F72653A200057494E4E45523A20004CFE
:100FDA004F5345523A2000504C415920414741490C
:100FEA004E3F0053636F726500506C617965723AC7
:020FFA002000D5
:00000001FF
