:100000000C9446000C9465000C9465000C946500FB
:100010000C9465000C9465000C9465000C946500CC
:100020000C9465000C9465000C9465000C946500BC
:100030000C9465000C94A4000C9465000C9465006D
:100040000C9465000C9465000C9465000C9465009C
:100050000C9465000C9465000C9465000C9465008C
:100060000C9465000C9465000C9465000C9465007C
:100070000C9465000C9465000C9465000C9465006C
:100080000C9465000C9465000C94650011241FBE4F
:10009000CFEFD0E4DEBFCDBF11E0A0E0B1E0E8E9F2
:1000A000F2E100E00BBF02C007900D92A239B10748
:1000B000D9F721E0A2E9B1E001C01D92A63CB20748
:1000C000E1F70E94FA050C9438090C940000CF93D4
:1000D000C82F8A3051F09091C00095FFFCCFC0939B
:1000E000C60090E080E0CF9108958DE00E94670007
:1000F000F2CF8BE0809381008FE090E090938900B5
:100100008093880082E080936F00109285001092A7
:10011000840080913A0190913B01A0913C01B09103
:100120003D018093940190939501A0939601B09323
:1001300097018FB780688FBF08951092810008954E
:1001400081E08093980108951F920F920FB60F924D
:1001500011240BB60F922F933F934F935F936F939E
:100160007F938F939F93AF93BF93EF93FF93809170
:10017000940190919501A0919601B09197010197FA
:10018000A109B1098093940190939501A0939601E0
:10019000B0939701892B8A2B8B2B99F0FF91EF91CC
:1001A000BF91AF919F918F917F916F915F914F918F
:1001B0003F912F910F900BBE0F900FBE0F901F908D
:1001C00018950E94A00080913A0190913B01A09166
:1001D0003C01B0913D018093940190939501A093CF
:1001E0009601B0939701DACF60933A0170933B0187
:1001F00080933C0190933D0160939401709395012D
:10020000809396019093970108950F931F93CF9336
:10021000DF9300D000D000D0CDB7DEB729833A837A
:100220004B835C8309811A812B812E833C813D8322
:1002300029813A814B815C810E94110769837A830D
:100240008B839C83602F712F8E819D8129813A81C0
:100250004B815C81232B242B252B21F726960FB66F
:10026000F894DEBF0FBECDBFDF91CF911F910F91EC
:100270000895442349F021E030E002C0220F331FEB
:100280006A95E2F7822B089521E030E002C0220F48
:10029000331F6A95E2F720958223089521E030E02C
:1002A00002C0220F331F6A95E2F78223089540E0CF
:1002B00064E08FEF0E94390182B9000080B160E0F4
:1002C00080950E944E0181117FC080B161E08095D0
:1002D0000E944E0181117AC080B162E080950E9437
:1002E0004E01811175C080B163E080950E944E017E
:1002F000811170C040E065E08FEF0E94390182B942
:10030000000080B160E080950E944E01811164C0C0
:1003100080B161E080950E944E0181115FC080B183
:1003200062E080950E944E0181115AC080B163E065
:1003300080950E944E01811155C040E066E08FEF2C
:100340000E94390182B9000080B160E080950E946E
:100350004E01811149C080B161E080950E944E013B
:10036000811144C080B162E080950E944E018111EC
:100370003FC080B163E080950E944E0181113AC078
:1003800040E067E08FEF0E94390182B9000080B140
:1003900060E080950E944E0181112EC080B161E025
:1003A00080950E944E01811129C080B162E0809544
:1003B0000E944E01811124C080B163E080950E94AB
:1003C0004E0181111FC0089581E3089584E30895CB
:1003D00087E308958AE2089582E3089585E3089506
:1003E00088E3089580E3089583E3089586E30895FC
:1003F00089E3089583E2089581E4089582E40895ED
:1004000083E4089584E4DFCF482F592F30E020E0C3
:1004100002C02F5F3F4F241735074CF490E080E077
:10042000873063E09607ACF700000196F9CF089596
:100430009BB19F7B9BB988B98BB180688BB9000059
:100440008BB18F778BB982E090E00E94040208950F
:1004500081E00E9418020895813120F481580E94A1
:100460001802089581550E941802089584E690E0CC
:100470000E94040288E30E94180286E00E9418028B
:100480008FE00E94180281E00E9418028AE090E04A
:100490000E94040208959BB190649BB988B98BB106
:1004A00080688BB900008BB18F778BB981E090E0C9
:1004B0000E94040208950F931F93CF93062F172FC6
:1004C000883038F080E80E941802CF911F910F9178
:1004D0000895885F880F880F880F0E941802C0E077
:1004E00007C0F801EC0FF11D80810E944B02CF5F25
:1004F000C830B8F3E7CF0F931F93CF93DF93182F34
:10050000C62FD72F0E9428028881882351F001E04E
:10051000010F812F0E942C0289910E944B02102F03
:10052000F3CFDF91CF911F910F9108951F93CF9338
:10053000DF93C62FD72F9881992349F011E0180F28
:100540000E942C0289910E944B02812FF4CFDF91EF
:10055000CF911F91089590E00E94E408089590E0E3
:100560000E94DC0808950E9436020E94280260E57D
:1005700071E082E10E947B028DE10E942C02809159
:100580009201805D0E944B028FE10E942C0208952F
:100590000E94CD089C012770307899231CF0C90176
:1005A0000196089521503109286F3F6F2F5F3F4F0B
:1005B000F6CF019789309105A8F4865C964FFC012F
:1005C0000C94330781E0089584E0089588E008954D
:1005D00080E1089580E2089580E4089580E8089518
:1005E00080E9089580E0089582E0089570E0FB01BD
:1005F000EE5CFE4F9081292F20952093C001209121
:100600000101213079F06F5C7E4FFB012081322F98
:1006100030953093C101920F90958093BF019093D4
:10062000BD0108956D5C7E4FFB012081322F309516
:100630003093C101920FF0CF6091920170E08091F0
:10064000930190E00E94F60290E080E00FC026EA5D
:100650002A95F1F700C0FC01E254FE4F208122B937
:10066000FC01E454FE4F208125B9019682309105AA
:1006700074F30895882349F0813079F060919201F4
:10068000809193010E94F60208958091920188233F
:10069000A9F3815080939201F1CF8091920186302D
:1006A00068F78F5F80939201E9CFCF93DF93C82FD4
:1006B000D92F209721F48091B001813021F0CE0113
:1006C000DF91CF9108956091920170E08091930144
:1006D00090E00E94F602489B07C04999F0CF90E055
:1006E00080E00E943A03EBCF81E090E00E943A0361
:1006F000F4CFCF931092B5011092B4011092B701CC
:100700001092B601AEEBB1E01C92ECEBF1E010827E
:1007100011961C9211820E9436020E9428026AE5FC
:1007200071E082E10E947B028DE10E942C028FEF3A
:100730000E94AF028093B10186E190E00E94DC0844
:10074000C82F8093B90181E090E00E94DC0880937B
:10075000B30190E080E00E94DC088093B201C531D3
:1007600010F01092B901682F70E090E080E00E94D4
:10077000F2086091B30170E081E090E00E94F2081D
:100780008091B201805D0E944B028091B301805D37
:100790000E944B028FE10E942C028FEF0E94AF0259
:1007A0000E944B026AE171E080E00E945B0262E11C
:1007B00071E081E00E945B026AE071E082E00E94E9
:1007C0005B0262E071E083E00E945B0287E00E94CE
:1007D0002C0280E00E944B0281E00E944B0282E0EA
:1007E0000E944B0284E00E944B028091AF010E9464
:1007F0002C02CF9108958091B9016091B40170915C
:10080000B501861717060CF008958091B701809303
:10081000B3018091B6018093B20186E190E00E941D
:10082000E40886E190E00E94DC088093B9016091C1
:10083000B8018FEF0E94AB028091B8018093B101A3
:100840006091B30181E090E00E94E4086091B20100
:1008500090E080E00E94E408D7CFCF93C82F64E1F6
:1008600070E080E090E00E94F40084E18093000159
:100870000E94FB031092B5011092B4011092B701CF
:100880001092B601AEEBB1E01C92ECEBF1E01082FD
:1008900011961C9211820E9436020E942802C130D9
:1008A00081F06FE671E085E00E947B028091B801E3
:1008B0000E944B0267E771E082E10E949602CF91AD
:1008C000089566E671E085E00E947B02EFCF0E940A
:1008D00036020E94280263E871E081E00E947B02F8
:1008E00069E871E085E10E947B028CE10E942C02A4
:1008F0008091B8010E944B028EE10E942C0281E09F
:100900000E942C028091B601805D0E944B02809172
:10091000B701805D0E944B0208958091BA019091C9
:10092000BB018230910509F440C080F0833091050D
:1009300009F449C00497E9F58091B001813009F4C8
:1009400052C01092BB011092BA0133C0009759F007
:10095000019779F5499B22C082E090E09093BB011A
:100960008093BA0126C0499909C0489B07C081E01D
:1009700090E09093BB018093BA011BC0499B09C0D2
:10098000489907C083E090E09093BB018093BA013F
:1009900010C01092BB011092BA010BC081E090E030
:1009A0009093BB018093BA0104C01092BB011092D6
:1009B000BA018091BA019091BB0182309105D1F0CA
:1009C000049731F10895489B07C084E090E090932C
:1009D000BB018093BA01EDCF83E090E09093BB011F
:1009E0008093BA01E6CF84E090E09093BB018093BE
:1009F000BA01DFCF8091AF018A3030F48F5F8093EE
:100A0000AF010E947903089587E08093AF01F9CF89
:100A100081E08093B0018091AF018930A1F040F472
:100A2000873061F0883061F481E08093B80108C0BC
:100A30008A3031F484E08093B80102C01092B8018A
:100A40000E946704089582E08093B801F9CFCF93A4
:100A5000DF9300D000D0CDB7DEB7282F392F293053
:100A60003105D0F4F901ED5BF64F0C94330780911A
:100A7000B001813011F0822F0FC090E00DC0809145
:100A800022018093BE010E94C8020E94D902809573
:100A90008093BC0182E090E00F900F900F900F9038
:100AA000DF91CF910895809123018093BE0183E06F
:100AB00090E0F2CF809124018093BE0184E090E029
:100AC000EBCF809125018093BE0185E090E0E4CFDB
:100AD000809126018093BE0186E090E0DDCF809179
:100AE00027018093BE0187E090E0D6CF8091280156
:100AF0008093BE0188E090E0CFCF8091BC019091BF
:100B0000C001891709F460C09091C101891709F4E7
:100B10005BC08091B4019091B501823191050CF0D8
:100B200042C001969093B5018093B4018091B701C2
:100B3000893009F441C08F5F8093B7010E94670438
:100B400080910001282F30E050E040E029833A8373
:100B50004B835C83CA01B9010E94DA072AE939E9AB
:100B600049E15EE369837A838B839C8369817A811F
:100B70008B819C810E943C0769837A838B839C8351
:100B800069817A818B819C810E94A9076093000111
:100B9000862F90E0B0E0A0E0BC01CD010E94F400FF
:100BA00081E090E019C01092B00181E090E00E94D5
:100BB0002D0480E090E010C08091B6018F5F80939B
:100BC000B6011092B701BACF1092B00190E080E068
:100BD0000E942D0480E090E0209129012093BE0125
:100BE0005BCF60E081E00E94AB0260E080E00E94A9
:100BF000AB020895CDB7DEB728970FB6F894DEBFE5
:100C00000FBECDBF8FEF81B91BB884B915B887B9B6
:100C100018B880EC8AB98FE78BB9A4EAB1E0BA833F
:100C2000A983E9E9F1E0FC83EB831C924CE350E0FB
:100C300060E070E011964D935D936D937C931497F3
:100C400015961D921D921D921C92189785E593E0B2
:100C50001A969C938E9319971082418352836383D3
:100C60007483158216821782108687E295E0928738
:100C7000818787E08093AF0190E080E00E94EA06E0
:100C80000E94D10880910001282F30E050E040E020
:100C90002D833E834F835887CA01B9010E94F40017
:100CA0000E9479000E94790381E080939301109261
:100CB00092011092BB011092BA0109C08FEF82B964
:100CC00015B80E948D048091B001813029F0809187
:100CD000B0018111F8CFF2CF0E941C03F12CE12C5E
:100CE0000FC0F80185819681A781B0850196A11D6D
:100CF000B11D85839683A783B087FFEFEF1AFF0AA4
:100D000022E0E216F10470F5F701EE0FFF1F41E05B
:100D100050E04C0F5D1FE40FF51F00811181D801D9
:100D200015964D915D916D917C91189711968D91CD
:100D30009D910D90BC91A02D481759076A077B071C
:100D400081F6D8011996ED91FC911A978C91082E95
:100D5000000C990B0995F801808315821682178281
:100D60001086BFCF4A9B07C0809198018823E1F38A
:100D700010929801ACCF1092B0011092B501109270
:100D8000B4011092B7011092B601AEEBB1E01C9223
:100D9000ECEBF1E0108211961C92118210929201FC
:100DA00087E08093AF010E94790390E080E00EC05D
:100DB000FC01EE0FFF1F41E050E04C0F5D1FE40F00
:100DC000F51F0190F081E02D10820196823091058F
:100DD00078F3CACFCF93DF9300D000D0CDB7DEB782
:100DE000FC010FB6F8948091C2019091C301A091CB
:100DF000C401B091C50189839A83AB83BC830FBEC4
:100E0000309721F080839183A283B38369817A81B3
:100E10008B819C810F900F900F900F90DF91CF915D
:100E20000895A1E21A2EAA1BBB1BFD010DC0AA1F2B
:100E3000BB1FEE1FFF1FA217B307E407F50720F043
:100E4000A21BB30BE40BF50B661F771F881F991FBE
:100E50001A9469F760957095809590959B01AC0107
:100E6000BD01CF010895EE0FFF1F0024001C0BBE33
:100E70000790F691E02D09945058BB27AA270E94AD
:100E800054070C942C080E941E0838F00E94250874
:100E900020F039F49F3F19F426F40C941B080EF44B
:100EA000E095E7FB0C941508E92F0E943D0858F3E4
:100EB000BA17620773078407950720F079F4A6F53F
:100EC0000C945F080EF4E0950B2EBA2FA02D0B01A9
:100ED000B90190010C01CA01A0011124FF27591B7F
:100EE00099F0593F50F4503E68F11A16F040A22F85
:100EF000232F342F4427585FF3CF469537952795F6
:100F0000A795F0405395C9F77EF41F16BA0B620BF4
:100F1000730B840BBAF09150A1F0FF0FBB1F661F3B
:100F2000771F881FC2F70EC0BA0F621F731F841F7E
:100F300048F4879577956795B795F7959E3F08F0A4
:100F4000B0CF9395880F08F09927EE0F9795879566
:100F500008950E94450888F09F5798F0B92F992767
:100F6000B751B0F0E1F0660F771F881F991F1AF094
:100F7000BA95C9F714C0B13091F00E945F08B1E092
:100F800008950C945F08672F782F8827B85F39F091
:100F9000B93FCCF3869577956795B395D9F73EF42D
:100FA00090958095709561957F4F8F4F9F4F0895D5
:100FB000E89409C097FB3EF49095809570956195F3
:100FC0007F4F8F4F9F4F9923A9F0F92F96E9BB27A9
:100FD0009395F695879577956795B795F111F8CF25
:100FE000FAF4BB0F11F460FF1BC06F5F7F4F8F4F90
:100FF0009F4F16C0882311F096E911C0772321F086
:101000009EE8872F762F05C0662371F096E8862F1D
:1010100070E060E02AF09A95660F771F881FDAF774
:10102000880F9695879597F9089597F99F6780E8B7
:1010300070E060E008959FEF80EC089500240A942A
:101040001616170618060906089500240A941216A3
:101050001306140605060895092E0394000C11F4D6
:10106000882352F0BB0F40F4BF2B11F460FF04C083
:101070006F5F7F4F8F4F9F4F089557FD9058440FDC
:10108000551F59F05F3F71F04795880F97FB991FE7
:1010900061F09F3F79F087950895121613061406A4
:1010A000551FF2CF4695F1DF08C016161706180631
:1010B000991FF1CF86957105610508940895E8940C
:1010C000BB2766277727CB0197F90895CF92DF9248
:1010D000EF92FF92CF93DF93CDB7DEB72A970FB68B
:1010E000F894DEBF0FBECDBF89879A87A985BA85E0
:1010F0002D913D914D915C9129833A834B835C8383
:10110000232B242B252B41F424E239ED4BE557E02A
:1011100029833A834B835C8369817A818B819C81AB
:101120002DE133EF41E050E00E94F70869017A01B8
:10113000A7EAB1E49B01AC010E94160969837A8396
:101140008B839C83ACEEB4EFA70196010E94240927
:101150009B01AC0189819A81AB81BC81820F931F75
:10116000A41FB51FB7FF03C00197A109B048E985C7
:10117000FA8580839183A283B3839F772A960FB6E3
:10118000F894DEBF0FBECDBFDF91CF91FF90EF90FF
:10119000DF90CF9008950C9466088CE491E00C9455
:1011A0006608B0E0A0E080934C0190934D01A093BD
:1011B0004E01B0934F010895F999FECF92BD81BDC4
:1011C000F89A992780B50895262FF999FECF1FBA6E
:1011D00092BD81BD20BD0FB6F894FA9AF99A0FBE60
:1011E000019608950E94E408272F0C94E508052E27
:1011F00097FB1EF400940E940E0957FD07D00E9431
:10120000110707FC03D04EF40C940E09509540953D
:10121000309521953F4F4F4F5F4F089590958095A2
:10122000709561957F4F8F4F9F4F08950E942909B8
:10123000A59F900DB49F900DA49F800D911D11242A
:101240000895B7FF0C9416090E941609821B930B90
:101250000895A29FB001B39FC001A39F700D811D8F
:101260001124911DB29F700D811D1124911D0895AF
:10127000F894FFCFE202F402E402E602E802EA0296
:10128000EC02EE02F00237053F0553055A056105F1
:0812900068056F0576057D0578
:10129800140111090402050A1100040411001F00B9
:1012A8001504110A040E000A000A04040E11001F96
:1012B80004048040201008040201010204081020E0
:1012C8004080010204081020408001000000000056
:1012D800000200000000670000000000010000009C
:1012E800637572656E74593A20006869676873633C
:1012F8006F72653A200057494E4E45523A20004CCD
:101308004F5345523A2000504C41592041474149DA
:101318004E3F0053636F726500506C617965723A95
:021328002000A3
:00000001FF
